{
  "contractName": "BAC",
  "abi": [
    {
      "inputs": [],
      "payable": false,
      "stateMutability": "nonpayable",
      "type": "constructor"
    },
    {
      "constant": false,
      "inputs": [
        {
          "name": "productBatch",
          "type": "string"
        },
        {
          "name": "materialBatch",
          "type": "string"
        },
        {
          "name": "TUCAddress",
          "type": "address"
        }
      ],
      "name": "addBatch",
      "outputs": [],
      "payable": false,
      "stateMutability": "nonpayable",
      "type": "function"
    },
    {
      "constant": true,
      "inputs": [
        {
          "name": "id",
          "type": "uint256"
        }
      ],
      "name": "getBatchOfId",
      "outputs": [
        {
          "name": "productBatch",
          "type": "string"
        },
        {
          "name": "materialBatch",
          "type": "string"
        },
        {
          "name": "batchManager",
          "type": "address"
        },
        {
          "name": "TUCAddress",
          "type": "address"
        },
        {
          "name": "addTime",
          "type": "uint256"
        }
      ],
      "payable": false,
      "stateMutability": "view",
      "type": "function"
    },
    {
      "constant": true,
      "inputs": [],
      "name": "getNumberOfBatchs",
      "outputs": [
        {
          "name": "numberOfBatchs",
          "type": "uint256"
        }
      ],
      "payable": false,
      "stateMutability": "view",
      "type": "function"
    },
    {
      "constant": true,
      "inputs": [
        {
          "name": "productBatch",
          "type": "string"
        }
      ],
      "name": "getAddressOfBatch",
      "outputs": [
        {
          "name": "addr",
          "type": "address"
        }
      ],
      "payable": false,
      "stateMutability": "view",
      "type": "function"
    },
    {
      "constant": false,
      "inputs": [
        {
          "name": "addr",
          "type": "address"
        }
      ],
      "name": "addUser",
      "outputs": [],
      "payable": false,
      "stateMutability": "nonpayable",
      "type": "function"
    },
    {
      "constant": false,
      "inputs": [
        {
          "name": "addr",
          "type": "address"
        }
      ],
      "name": "removeUser",
      "outputs": [],
      "payable": false,
      "stateMutability": "nonpayable",
      "type": "function"
    },
    {
      "constant": true,
      "inputs": [
        {
          "name": "addr",
          "type": "address"
        }
      ],
      "name": "checkUser",
      "outputs": [
        {
          "name": "result",
          "type": "bool"
        }
      ],
      "payable": false,
      "stateMutability": "view",
      "type": "function"
    },
    {
      "constant": false,
      "inputs": [],
      "name": "deleteContract",
      "outputs": [],
      "payable": false,
      "stateMutability": "nonpayable",
      "type": "function"
    }
  ],
  "bytecode": "0x608060405234801561001057600080fd5b5033600560006101000a81548173ffffffffffffffffffffffffffffffffffffffff021916908373ffffffffffffffffffffffffffffffffffffffff1602179055506001600481905550610df4806100696000396000f30060806040526004361061008e576000357c0100000000000000000000000000000000000000000000000000000000900463ffffffff1680631e9d48cf14610093578063421b2d8b146100ee5780635a58cd4c146101315780639857518814610148578063b061f5ca1461018b578063d4df11ac1461025a578063efcd3f4f146103d9578063fdc0595d14610482575b600080fd5b34801561009f57600080fd5b506100d4600480360381019080803573ffffffffffffffffffffffffffffffffffffffff1690602001909291905050506104ad565b604051808215151515815260200191505060405180910390f35b3480156100fa57600080fd5b5061012f600480360381019080803573ffffffffffffffffffffffffffffffffffffffff169060200190929190505050610502565b005b34801561013d57600080fd5b506101466105b8565b005b34801561015457600080fd5b50610189600480360381019080803573ffffffffffffffffffffffffffffffffffffffff16906020019092919050505061064f565b005b34801561019757600080fd5b50610258600480360381019080803590602001908201803590602001908080601f0160208091040260200160405190810160405280939291908181526020018383808284378201915050505050509192919290803590602001908201803590602001908080601f0160208091040260200160405190810160405280939291908181526020018383808284378201915050505050509192919290803573ffffffffffffffffffffffffffffffffffffffff169060200190929190505050610705565b005b34801561026657600080fd5b5061028560048036038101908080359060200190929190505050610a83565b6040518080602001806020018673ffffffffffffffffffffffffffffffffffffffff1673ffffffffffffffffffffffffffffffffffffffff1681526020018573ffffffffffffffffffffffffffffffffffffffff1673ffffffffffffffffffffffffffffffffffffffff168152602001848152602001838103835288818151815260200191508051906020019080838360005b83811015610333578082015181840152602081019050610318565b50505050905090810190601f1680156103605780820380516001836020036101000a031916815260200191505b50838103825287818151815260200191508051906020019080838360005b8381101561039957808201518184015260208101905061037e565b50505050905090810190601f1680156103c65780820380516001836020036101000a031916815260200191505b5097505050505050505060405180910390f35b3480156103e557600080fd5b50610440600480360381019080803590602001908201803590602001908080601f0160208091040260200160405190810160405280939291908181526020018383808284378201915050505050509192919290505050610c81565b604051808273ffffffffffffffffffffffffffffffffffffffff1673ffffffffffffffffffffffffffffffffffffffff16815260200191505060405180910390f35b34801561048e57600080fd5b50610497610d16565b6040518082815260200191505060405180910390f35b60008060008373ffffffffffffffffffffffffffffffffffffffff1673ffffffffffffffffffffffffffffffffffffffff16815260200190815260200160002060009054906101000a900460ff169050919050565b600560009054906101000a900473ffffffffffffffffffffffffffffffffffffffff1673ffffffffffffffffffffffffffffffffffffffff163373ffffffffffffffffffffffffffffffffffffffff1614151561055e57600080fd5b60016000808373ffffffffffffffffffffffffffffffffffffffff1673ffffffffffffffffffffffffffffffffffffffff16815260200190815260200160002060006101000a81548160ff02191690831515021790555050565b600560009054906101000a900473ffffffffffffffffffffffffffffffffffffffff1673ffffffffffffffffffffffffffffffffffffffff163373ffffffffffffffffffffffffffffffffffffffff1614151561061457600080fd5b600560009054906101000a900473ffffffffffffffffffffffffffffffffffffffff1673ffffffffffffffffffffffffffffffffffffffff16ff5b600560009054906101000a900473ffffffffffffffffffffffffffffffffffffffff1673ffffffffffffffffffffffffffffffffffffffff163373ffffffffffffffffffffffffffffffffffffffff161415156106ab57600080fd5b60008060008373ffffffffffffffffffffffffffffffffffffffff1673ffffffffffffffffffffffffffffffffffffffff16815260200190815260200160002060006101000a81548160ff02191690831515021790555050565b33600115156000808373ffffffffffffffffffffffffffffffffffffffff1673ffffffffffffffffffffffffffffffffffffffff16815260200190815260200160002060009054906101000a900460ff16151514151561076457600080fd5b600073ffffffffffffffffffffffffffffffffffffffff166002856040518082805190602001908083835b6020831015156107b4578051825260208201915060208101905060208303925061078f565b6001836020036101000a038019825116818451168082178552505050505050905001915050908152602001604051809103902060009054906101000a900473ffffffffffffffffffffffffffffffffffffffff1673ffffffffffffffffffffffffffffffffffffffff1614151561082a57600080fd5b6000600360008473ffffffffffffffffffffffffffffffffffffffff1673ffffffffffffffffffffffffffffffffffffffff16815260200190815260200160002080546001816001161561010002031660029004905014151561088c57600080fd5b600c845114151561089c57600080fd5b8360016000600454815260200190815260200160002060000190805190602001906108c8929190610d23565b508260016000600454815260200190815260200160002060010190805190602001906108f5929190610d23565b503360016000600454815260200190815260200160002060020160006101000a81548173ffffffffffffffffffffffffffffffffffffffff021916908373ffffffffffffffffffffffffffffffffffffffff1602179055508160016000600454815260200190815260200160002060030160006101000a81548173ffffffffffffffffffffffffffffffffffffffff021916908373ffffffffffffffffffffffffffffffffffffffff1602179055504260016000600454815260200190815260200160002060040181905550816002856040518082805190602001908083835b6020831015156109fa57805182526020820191506020810190506020830392506109d5565b6001836020036101000a038019825116818451168082178552505050505050905001915050908152602001604051809103902060006101000a81548173ffffffffffffffffffffffffffffffffffffffff021916908373ffffffffffffffffffffffffffffffffffffffff16021790555060046000815480929190600101919050555050505050565b6060806000806000600160008781526020019081526020016000206000018054600181600116156101000203166002900480601f016020809104026020016040519081016040528092919081815260200182805460018160011615610100020316600290048015610b355780601f10610b0a57610100808354040283529160200191610b35565b820191906000526020600020905b815481529060010190602001808311610b1857829003601f168201915b50505050509450600160008781526020019081526020016000206001018054600181600116156101000203166002900480601f016020809104026020016040519081016040528092919081815260200182805460018160011615610100020316600290048015610be65780601f10610bbb57610100808354040283529160200191610be6565b820191906000526020600020905b815481529060010190602001808311610bc957829003601f168201915b505050505093506001600087815260200190815260200160002060020160009054906101000a900473ffffffffffffffffffffffffffffffffffffffff1692506001600087815260200190815260200160002060030160009054906101000a900473ffffffffffffffffffffffffffffffffffffffff1691506001600087815260200190815260200160002060040154905091939590929450565b60006002826040518082805190602001908083835b602083101515610cbb5780518252602082019150602081019050602083039250610c96565b6001836020036101000a038019825116818451168082178552505050505050905001915050908152602001604051809103902060009054906101000a900473ffffffffffffffffffffffffffffffffffffffff169050919050565b6000600160045403905090565b828054600181600116156101000203166002900490600052602060002090601f016020900481019282601f10610d6457805160ff1916838001178555610d92565b82800160010185558215610d92579182015b82811115610d91578251825591602001919060010190610d76565b5b509050610d9f9190610da3565b5090565b610dc591905b80821115610dc1576000816000905550600101610da9565b5090565b905600a165627a7a723058208515301528bfd7178ed6022136be2da089e044b02c862cd342eb0228e7d6b3f30029",
  "source": "pragma solidity ^0.4.23;\r\n\r\ncontract BAC {\r\n\r\n  // Mapping from user address to boolean type\r\n  mapping(address => bool) isAuthorized;\r\n\r\n  // Define struct\r\n  struct batch {\r\n    string _productBatch;\r\n    string _materialBatch;\r\n    address _batchManager;\r\n    address _TUCAddress;\r\n    uint _addTime;\r\n  }\r\n\r\n  mapping(uint => batch) _batchs;\r\n\r\n  mapping(string => address) _batchToAddress;\r\n\r\n  mapping(address => string) _addressToBatch;\r\n\r\n  uint _numberOfBatchs;\r\n\r\n  address _productAdmin;\r\n\r\n  // As a prerequisite for some functions\r\n  modifier onlyAdmin {\r\n    require(msg.sender == _productAdmin);\r\n    _;\r\n  }\r\n\r\n  modifier onlyAuthorized(address addr) {\r\n    require(isAuthorized[addr] == true);\r\n    _;\r\n  }\r\n\r\n  // Constructor function\r\n  constructor() public {\r\n    _productAdmin = msg.sender;\r\n    _numberOfBatchs = 1;\r\n  }\r\n\r\n  // Add production batch information\r\n  function addBatch(string productBatch, string materialBatch, address TUCAddress) public onlyAuthorized(msg.sender) {\r\n\r\n    require(_batchToAddress[productBatch] == address(0));\r\n    require(bytes(_addressToBatch[TUCAddress]).length == 0);\r\n\r\n    require(bytes(productBatch).length == 12);\r\n\r\n    _batchs[_numberOfBatchs]._productBatch = productBatch;\r\n    _batchs[_numberOfBatchs]._materialBatch = materialBatch;\r\n    _batchs[_numberOfBatchs]._batchManager = msg.sender;\r\n    _batchs[_numberOfBatchs]._TUCAddress = TUCAddress;\r\n    _batchs[_numberOfBatchs]._addTime = now;\r\n    _batchToAddress[productBatch] = TUCAddress;\r\n\r\n    _numberOfBatchs++;\r\n\r\n  }\r\n\r\n  // Get batch information by id\r\n  function getBatchOfId(uint id) constant public returns(string productBatch, string materialBatch, address batchManager, address TUCAddress, uint addTime) {\r\n\r\n    productBatch = _batchs[id]._productBatch;\r\n    materialBatch = _batchs[id]._materialBatch;\r\n    batchManager = _batchs[id]._batchManager;\r\n    TUCAddress = _batchs[id]._TUCAddress;\r\n    addTime = _batchs[id]._addTime;\r\n\r\n  }\r\n\r\n  // Get the number of batches\r\n  function getNumberOfBatchs() constant public returns(uint numberOfBatchs) {\r\n    numberOfBatchs = _numberOfBatchs - 1;\r\n  }\r\n\r\n  function getAddressOfBatch(string productBatch) constant public returns(address addr) {\r\n    addr = _batchToAddress[productBatch];\r\n  }\r\n\r\n  // Add user to authorization list\r\n  function addUser(address addr) public onlyAdmin {\r\n    isAuthorized[addr] = true;\r\n  }\r\n\r\n  // Remove user\r\n  function removeUser(address addr) public onlyAdmin {\r\n    isAuthorized[addr] = false;\r\n  }\r\n\r\n  // Check if the user is authorized\r\n  function checkUser(address addr) constant public returns(bool result) {\r\n    result = isAuthorized[addr];\r\n  }\r\n\r\n  // Destroy the contract\r\n  function deleteContract() onlyAdmin public {\r\n    selfdestruct(_productAdmin);\r\n  }\r\n\r\n}\r\n",
  "sourcePath": "/Users/macbook/Desktop/Supplies/contracts/BAC.sol",
  "compiler": {
    "name": "solc",
    "version": "0.4.23+commit.124ca40d.Emscripten.clang"
  },
  "schemaVersion": "3.4.1",
  "updatedAt": "2021-06-22T10:58:46.793Z",
  "devdoc": {
    "methods": {}
  },
  "userdoc": {
    "methods": {}
  }
}