{
  "contractName": "PRC",
  "abi": [
    {
      "inputs": [],
      "payable": false,
      "stateMutability": "nonpayable",
      "type": "constructor"
    },
    {
      "constant": false,
      "inputs": [
        {
          "name": "productName",
          "type": "string"
        },
        {
          "name": "productCode",
          "type": "string"
        },
        {
          "name": "rawMaterials",
          "type": "string"
        },
        {
          "name": "BACAddress",
          "type": "address"
        }
      ],
      "name": "productRegister",
      "outputs": [],
      "payable": false,
      "stateMutability": "nonpayable",
      "type": "function"
    },
    {
      "constant": false,
      "inputs": [
        {
          "name": "materialName",
          "type": "string"
        },
        {
          "name": "materialCode",
          "type": "string"
        },
        {
          "name": "BACAddress",
          "type": "address"
        }
      ],
      "name": "materialRegister",
      "outputs": [],
      "payable": false,
      "stateMutability": "nonpayable",
      "type": "function"
    },
    {
      "constant": true,
      "inputs": [],
      "name": "getNumberOfProducts",
      "outputs": [
        {
          "name": "numberOfProducts",
          "type": "uint256"
        }
      ],
      "payable": false,
      "stateMutability": "view",
      "type": "function"
    },
    {
      "constant": true,
      "inputs": [
        {
          "name": "id",
          "type": "uint256"
        }
      ],
      "name": "getProductOfId",
      "outputs": [
        {
          "name": "productName",
          "type": "string"
        },
        {
          "name": "productCode",
          "type": "string"
        },
        {
          "name": "rawMaterials",
          "type": "string"
        },
        {
          "name": "productOwner",
          "type": "address"
        },
        {
          "name": "timestamp",
          "type": "uint256"
        },
        {
          "name": "BACAddress",
          "type": "address"
        }
      ],
      "payable": false,
      "stateMutability": "view",
      "type": "function"
    },
    {
      "constant": true,
      "inputs": [
        {
          "name": "productCode",
          "type": "string"
        }
      ],
      "name": "getIdOfCode",
      "outputs": [
        {
          "name": "id",
          "type": "uint256"
        }
      ],
      "payable": false,
      "stateMutability": "view",
      "type": "function"
    },
    {
      "constant": true,
      "inputs": [
        {
          "name": "productCode",
          "type": "string"
        }
      ],
      "name": "getAddressOfCode",
      "outputs": [
        {
          "name": "addr",
          "type": "address"
        }
      ],
      "payable": false,
      "stateMutability": "view",
      "type": "function"
    },
    {
      "constant": false,
      "inputs": [
        {
          "name": "addr",
          "type": "address"
        }
      ],
      "name": "addUser",
      "outputs": [],
      "payable": false,
      "stateMutability": "nonpayable",
      "type": "function"
    },
    {
      "constant": false,
      "inputs": [
        {
          "name": "addr",
          "type": "address"
        }
      ],
      "name": "removeUser",
      "outputs": [],
      "payable": false,
      "stateMutability": "nonpayable",
      "type": "function"
    },
    {
      "constant": true,
      "inputs": [
        {
          "name": "addr",
          "type": "address"
        }
      ],
      "name": "checkUser",
      "outputs": [
        {
          "name": "result",
          "type": "bool"
        }
      ],
      "payable": false,
      "stateMutability": "view",
      "type": "function"
    },
    {
      "constant": false,
      "inputs": [],
      "name": "deleteContract",
      "outputs": [],
      "payable": false,
      "stateMutability": "nonpayable",
      "type": "function"
    }
  ],
  "bytecode": "0x608060405234801561001057600080fd5b5033600460006101000a81548173ffffffffffffffffffffffffffffffffffffffff021916908373ffffffffffffffffffffffffffffffffffffffff1602179055506001600381905550611635806100696000396000f3006080604052600436106100a4576000357c0100000000000000000000000000000000000000000000000000000000900463ffffffff1680631e9d48cf146100a95780633ffd81fb14610104578063421b2d8b1461012f5780635a58cd4c14610172578063814f9a1914610189578063985751881461029e578063adec3862146102e1578063b53ffad8146104cc578063be1ab5f914610575578063f77a7f7f14610644575b600080fd5b3480156100b557600080fd5b506100ea600480360381019080803573ffffffffffffffffffffffffffffffffffffffff1690602001909291905050506106c1565b604051808215151515815260200191505060405180910390f35b34801561011057600080fd5b50610119610716565b6040518082815260200191505060405180910390f35b34801561013b57600080fd5b50610170600480360381019080803573ffffffffffffffffffffffffffffffffffffffff169060200190929190505050610723565b005b34801561017e57600080fd5b506101876107d9565b005b34801561019557600080fd5b5061029c600480360381019080803590602001908201803590602001908080601f0160208091040260200160405190810160405280939291908181526020018383808284378201915050505050509192919290803590602001908201803590602001908080601f0160208091040260200160405190810160405280939291908181526020018383808284378201915050505050509192919290803590602001908201803590602001908080601f0160208091040260200160405190810160405280939291908181526020018383808284378201915050505050509192919290803573ffffffffffffffffffffffffffffffffffffffff169060200190929190505050610870565b005b3480156102aa57600080fd5b506102df600480360381019080803573ffffffffffffffffffffffffffffffffffffffff169060200190929190505050610ca0565b005b3480156102ed57600080fd5b5061030c60048036038101908080359060200190929190505050610d56565b604051808060200180602001806020018773ffffffffffffffffffffffffffffffffffffffff1673ffffffffffffffffffffffffffffffffffffffff1681526020018681526020018573ffffffffffffffffffffffffffffffffffffffff1673ffffffffffffffffffffffffffffffffffffffff16815260200184810384528a818151815260200191508051906020019080838360005b838110156103be5780820151818401526020810190506103a3565b50505050905090810190601f1680156103eb5780820380516001836020036101000a031916815260200191505b50848103835289818151815260200191508051906020019080838360005b83811015610424578082015181840152602081019050610409565b50505050905090810190601f1680156104515780820380516001836020036101000a031916815260200191505b50848103825288818151815260200191508051906020019080838360005b8381101561048a57808201518184015260208101905061046f565b50505050905090810190601f1680156104b75780820380516001836020036101000a031916815260200191505b50995050505050505050505060405180910390f35b3480156104d857600080fd5b50610533600480360381019080803590602001908201803590602001908080601f0160208091040260200160405190810160405280939291908181526020018383808284378201915050505050509192919290505050611007565b604051808273ffffffffffffffffffffffffffffffffffffffff1673ffffffffffffffffffffffffffffffffffffffff16815260200191505060405180910390f35b34801561058157600080fd5b50610642600480360381019080803590602001908201803590602001908080601f0160208091040260200160405190810160405280939291908181526020018383808284378201915050505050509192919290803590602001908201803590602001908080601f0160208091040260200160405190810160405280939291908181526020018383808284378201915050505050509192919290803573ffffffffffffffffffffffffffffffffffffffff16906020019092919050505061109c565b005b34801561065057600080fd5b506106ab600480360381019080803590602001908201803590602001908080601f01602080910402602001604051908101604052809392919081815260200183838082843782019150505050505091929192905050506114ef565b6040518082815260200191505060405180910390f35b60008060008373ffffffffffffffffffffffffffffffffffffffff1673ffffffffffffffffffffffffffffffffffffffff16815260200190815260200160002060009054906101000a900460ff169050919050565b6000600160035403905090565b600460009054906101000a900473ffffffffffffffffffffffffffffffffffffffff1673ffffffffffffffffffffffffffffffffffffffff163373ffffffffffffffffffffffffffffffffffffffff1614151561077f57600080fd5b60016000808373ffffffffffffffffffffffffffffffffffffffff1673ffffffffffffffffffffffffffffffffffffffff16815260200190815260200160002060006101000a81548160ff02191690831515021790555050565b600460009054906101000a900473ffffffffffffffffffffffffffffffffffffffff1673ffffffffffffffffffffffffffffffffffffffff163373ffffffffffffffffffffffffffffffffffffffff1614151561083557600080fd5b600460009054906101000a900473ffffffffffffffffffffffffffffffffffffffff1673ffffffffffffffffffffffffffffffffffffffff16ff5b600460009054906101000a900473ffffffffffffffffffffffffffffffffffffffff1673ffffffffffffffffffffffffffffffffffffffff163373ffffffffffffffffffffffffffffffffffffffff161415156108cc57600080fd5b60006005846040518082805190602001908083835b60208310151561090657805182526020820191506020810190506020830392506108e1565b6001836020036101000a038019825116818451168082178552505050505050905001915050908152602001604051809103902080546001816001161561010002031660029004905014151561095a57600080fd5b600384511015801561096e57506040845111155b151561097957600080fd5b600d835114151561098957600080fd5b600982511015151561099a57600080fd5b836005846040518082805190602001908083835b6020831015156109d357805182526020820191506020810190506020830392506109ae565b6001836020036101000a03801982511681845116808217855250505050505090500191505090815260200160405180910390209080519060200190610a19929190611564565b506003546002846040518082805190602001908083835b602083101515610a555780518252602082019150602081019050602083039250610a30565b6001836020036101000a038019825116818451168082178552505050505050905001915050908152602001604051809103902081905550806006846040518082805190602001908083835b602083101515610ac55780518252602082019150602081019050602083039250610aa0565b6001836020036101000a038019825116818451168082178552505050505050905001915050908152602001604051809103902060006101000a81548173ffffffffffffffffffffffffffffffffffffffff021916908373ffffffffffffffffffffffffffffffffffffffff160217905550836001600060035481526020019081526020016000206000019080519060200190610b62929190611564565b50826001600060035481526020019081526020016000206001019080519060200190610b8f929190611564565b50816001600060035481526020019081526020016000206002019080519060200190610bbc929190611564565b503360016000600354815260200190815260200160002060030160006101000a81548173ffffffffffffffffffffffffffffffffffffffff021916908373ffffffffffffffffffffffffffffffffffffffff16021790555042600160006003548152602001908152602001600020600401819055508060016000600354815260200190815260200160002060050160006101000a81548173ffffffffffffffffffffffffffffffffffffffff021916908373ffffffffffffffffffffffffffffffffffffffff16021790555060036000815480929190600101919050555050505050565b600460009054906101000a900473ffffffffffffffffffffffffffffffffffffffff1673ffffffffffffffffffffffffffffffffffffffff163373ffffffffffffffffffffffffffffffffffffffff16141515610cfc57600080fd5b60008060008373ffffffffffffffffffffffffffffffffffffffff1673ffffffffffffffffffffffffffffffffffffffff16815260200190815260200160002060006101000a81548160ff02191690831515021790555050565b60608060606000806000600160008881526020019081526020016000206000018054600181600116156101000203166002900480601f016020809104026020016040519081016040528092919081815260200182805460018160011615610100020316600290048015610e0a5780601f10610ddf57610100808354040283529160200191610e0a565b820191906000526020600020905b815481529060010190602001808311610ded57829003601f168201915b50505050509550600160008881526020019081526020016000206001018054600181600116156101000203166002900480601f016020809104026020016040519081016040528092919081815260200182805460018160011615610100020316600290048015610ebb5780601f10610e9057610100808354040283529160200191610ebb565b820191906000526020600020905b815481529060010190602001808311610e9e57829003601f168201915b50505050509450600160008881526020019081526020016000206002018054600181600116156101000203166002900480601f016020809104026020016040519081016040528092919081815260200182805460018160011615610100020316600290048015610f6c5780601f10610f4157610100808354040283529160200191610f6c565b820191906000526020600020905b815481529060010190602001808311610f4f57829003601f168201915b505050505093506001600088815260200190815260200160002060030160009054906101000a900473ffffffffffffffffffffffffffffffffffffffff169250600160008881526020019081526020016000206004015491506001600088815260200190815260200160002060050160009054906101000a900473ffffffffffffffffffffffffffffffffffffffff16905091939550919395565b60006006826040518082805190602001908083835b602083101515611041578051825260208201915060208101905060208303925061101c565b6001836020036101000a038019825116818451168082178552505050505050905001915050908152602001604051809103902060009054906101000a900473ffffffffffffffffffffffffffffffffffffffff169050919050565b600460009054906101000a900473ffffffffffffffffffffffffffffffffffffffff1673ffffffffffffffffffffffffffffffffffffffff163373ffffffffffffffffffffffffffffffffffffffff161415156110f857600080fd5b60006005836040518082805190602001908083835b602083101515611132578051825260208201915060208101905060208303925061110d565b6001836020036101000a038019825116818451168082178552505050505050905001915050908152602001604051809103902080546001816001161561010002031660029004905014151561118657600080fd5b600383511015801561119a57506040835111155b15156111a557600080fd5b600982511415156111b557600080fd5b826005836040518082805190602001908083835b6020831015156111ee57805182526020820191506020810190506020830392506111c9565b6001836020036101000a03801982511681845116808217855250505050505090500191505090815260200160405180910390209080519060200190611234929190611564565b506003546002836040518082805190602001908083835b602083101515611270578051825260208201915060208101905060208303925061124b565b6001836020036101000a038019825116818451168082178552505050505050905001915050908152602001604051809103902081905550806006836040518082805190602001908083835b6020831015156112e057805182526020820191506020810190506020830392506112bb565b6001836020036101000a038019825116818451168082178552505050505050905001915050908152602001604051809103902060006101000a81548173ffffffffffffffffffffffffffffffffffffffff021916908373ffffffffffffffffffffffffffffffffffffffff16021790555082600160006003548152602001908152602001600020600001908051906020019061137d929190611564565b508160016000600354815260200190815260200160002060010190805190602001906113aa929190611564565b506040805190810160405280600181526020017f2f00000000000000000000000000000000000000000000000000000000000000815250600160006003548152602001908152602001600020600201908051906020019061140c929190611564565b503360016000600354815260200190815260200160002060030160006101000a81548173ffffffffffffffffffffffffffffffffffffffff021916908373ffffffffffffffffffffffffffffffffffffffff16021790555042600160006003548152602001908152602001600020600401819055508060016000600354815260200190815260200160002060050160006101000a81548173ffffffffffffffffffffffffffffffffffffffff021916908373ffffffffffffffffffffffffffffffffffffffff160217905550600360008154809291906001019190505550505050565b60006002826040518082805190602001908083835b6020831015156115295780518252602082019150602081019050602083039250611504565b6001836020036101000a0380198251168184511680821785525050505050509050019150509081526020016040518091039020549050919050565b828054600181600116156101000203166002900490600052602060002090601f016020900481019282601f106115a557805160ff19168380011785556115d3565b828001600101855582156115d3579182015b828111156115d25782518255916020019190600101906115b7565b5b5090506115e091906115e4565b5090565b61160691905b808211156116025760008160009055506001016115ea565b5090565b905600a165627a7a72305820d239f0cb7fbf3df85c13d83f10a41f6baa411b9ca4e1cd1d440b75b438a4d3100029",
  "source": "pragma solidity ^ 0.4.23;\r\n\r\ncontract PRC {\r\n\r\n  // Mapping from user address to boolean type\r\n  mapping(address => bool) isAuthorized;\r\n\r\n  // Define struct\r\n  struct product {\r\n    string _productName;\r\n    string _productCode;\r\n    string _rawMaterials;\r\n    address _productOwner;\r\n    uint _timestamp;\r\n    address _BACAddress;\r\n  }\r\n\r\n  mapping(uint => product) _products;\r\n\r\n  mapping(string => uint) _productCodeToId;\r\n\r\n  uint _numberOfProducts;\r\n\r\n  address _admin;\r\n\r\n  mapping(string => string) _productCodeToName;\r\n  mapping(string => address) _productCodeToBACAddress;\r\n\r\n  // As a prerequisite for some functions\r\n  modifier onlyAdmin {\r\n    require(msg.sender == _admin);\r\n    _;\r\n  }\r\n\r\n  modifier onlyAuthorized(address addr) {\r\n    require(isAuthorized[addr] == true);\r\n    _;\r\n  }\r\n\r\n  // Constructor function\r\n  constructor() public {\r\n    _admin = msg.sender;\r\n    _numberOfProducts = 1;\r\n  }\r\n\r\n  // Register product information\r\n  function productRegister(string productName, string productCode, string rawMaterials, address BACAddress) public onlyAdmin {\r\n\r\n    require(bytes(_productCodeToName[productCode]).length == 0);\r\n\r\n    require(bytes(productName).length >= 3 && bytes(productName).length <= 64);\r\n    require(bytes(productCode).length == 13);\r\n    require(bytes(rawMaterials).length >= 9);\r\n\r\n    _productCodeToName[productCode] = productName;\r\n    _productCodeToId[productCode] = _numberOfProducts;\r\n    _productCodeToBACAddress[productCode] = BACAddress;\r\n\r\n    _products[_numberOfProducts]._productName = productName;\r\n    _products[_numberOfProducts]._productCode = productCode;\r\n    _products[_numberOfProducts]._rawMaterials = rawMaterials;\r\n    _products[_numberOfProducts]._productOwner = msg.sender;\r\n    _products[_numberOfProducts]._timestamp = now;\r\n    _products[_numberOfProducts]._BACAddress = BACAddress;\r\n\r\n    _numberOfProducts++;\r\n\r\n  }\r\n\r\n  // Register raw material information\r\n  function materialRegister(string materialName, string materialCode, address BACAddress) public onlyAdmin {\r\n\r\n    require(bytes(_productCodeToName[materialCode]).length == 0);\r\n\r\n    require(bytes(materialName).length >= 3 && bytes(materialName).length <= 64);\r\n    require(bytes(materialCode).length == 9);\r\n\r\n    _productCodeToName[materialCode] = materialName;\r\n    _productCodeToId[materialCode] = _numberOfProducts;\r\n    _productCodeToBACAddress[materialCode] = BACAddress;\r\n\r\n    _products[_numberOfProducts]._productName = materialName;\r\n    _products[_numberOfProducts]._productCode = materialCode;\r\n    _products[_numberOfProducts]._rawMaterials = \"/\";\r\n    _products[_numberOfProducts]._productOwner = msg.sender;\r\n    _products[_numberOfProducts]._timestamp = now;\r\n    _products[_numberOfProducts]._BACAddress = BACAddress;\r\n\r\n    _numberOfProducts++;\r\n\r\n  }\r\n\r\n  // Get the number of products\r\n  function getNumberOfProducts() constant public returns(uint numberOfProducts) {\r\n    numberOfProducts = _numberOfProducts - 1;\r\n  }\r\n\r\n  // Get product information by id\r\n  function getProductOfId(uint id) constant public returns(string productName, string productCode, string rawMaterials, address productOwner, uint timestamp, address BACAddress) {\r\n\r\n    productName = _products[id]._productName;\r\n    productCode = _products[id]._productCode;\r\n    rawMaterials = _products[id]._rawMaterials;\r\n    productOwner = _products[id]._productOwner;\r\n    timestamp = _products[id]._timestamp;\r\n    BACAddress = _products[id]._BACAddress;\r\n  }\r\n\r\n  function getIdOfCode(string productCode) constant public returns(uint id) {\r\n    id = _productCodeToId[productCode];\r\n  }\r\n\r\n  function getAddressOfCode(string productCode) constant public returns(address addr) {\r\n    addr = _productCodeToBACAddress[productCode];\r\n  }\r\n\r\n  // Add user to authorization list\r\n  function addUser(address addr) public onlyAdmin {\r\n    isAuthorized[addr] = true;\r\n  }\r\n\r\n  // Remove user\r\n  function removeUser(address addr) public onlyAdmin {\r\n    isAuthorized[addr] = false;\r\n  }\r\n\r\n  // Check if the user is authorized\r\n  function checkUser(address addr) constant public returns(bool result) {\r\n    result = isAuthorized[addr];\r\n  }\r\n\r\n  // Destroy the contract\r\n  function deleteContract() public onlyAdmin {\r\n    selfdestruct(_admin);\r\n  }\r\n\r\n}\r\n",
  "sourcePath": "/Users/macbook/Desktop/Supplies/contracts/PRC.sol",
  "compiler": {
    "name": "solc",
    "version": "0.4.23+commit.124ca40d.Emscripten.clang"
  },
  "schemaVersion": "3.4.1",
  "updatedAt": "2021-06-23T08:16:52.892Z",
  "networkType": "ethereum",
  "devdoc": {
    "methods": {}
  },
  "userdoc": {
    "methods": {}
  }
}