{
  "contractName": "TUC",
  "abi": [
    {
      "inputs": [],
      "payable": false,
      "stateMutability": "nonpayable",
      "type": "constructor"
    },
    {
      "constant": false,
      "inputs": [
        {
          "name": "currentTx",
          "type": "string"
        },
        {
          "name": "previousTx",
          "type": "string"
        },
        {
          "name": "re",
          "type": "string"
        }
      ],
      "name": "addTr",
      "outputs": [],
      "payable": false,
      "stateMutability": "nonpayable",
      "type": "function"
    },
    {
      "constant": true,
      "inputs": [
        {
          "name": "id",
          "type": "uint256"
        }
      ],
      "name": "getTrOfId",
      "outputs": [
        {
          "name": "currentTx",
          "type": "string"
        },
        {
          "name": "previousTx",
          "type": "string"
        },
        {
          "name": "se",
          "type": "address"
        },
        {
          "name": "re",
          "type": "string"
        },
        {
          "name": "time",
          "type": "uint256"
        }
      ],
      "payable": false,
      "stateMutability": "view",
      "type": "function"
    },
    {
      "constant": true,
      "inputs": [],
      "name": "getNumberOfTrs",
      "outputs": [
        {
          "name": "numberOfTrs",
          "type": "uint256"
        }
      ],
      "payable": false,
      "stateMutability": "view",
      "type": "function"
    },
    {
      "constant": false,
      "inputs": [
        {
          "name": "addr",
          "type": "address"
        }
      ],
      "name": "addUser",
      "outputs": [],
      "payable": false,
      "stateMutability": "nonpayable",
      "type": "function"
    },
    {
      "constant": false,
      "inputs": [
        {
          "name": "addr",
          "type": "address"
        }
      ],
      "name": "removeUser",
      "outputs": [],
      "payable": false,
      "stateMutability": "nonpayable",
      "type": "function"
    },
    {
      "constant": true,
      "inputs": [
        {
          "name": "addr",
          "type": "address"
        }
      ],
      "name": "checkUser",
      "outputs": [
        {
          "name": "result",
          "type": "bool"
        }
      ],
      "payable": false,
      "stateMutability": "view",
      "type": "function"
    },
    {
      "constant": false,
      "inputs": [],
      "name": "deleteContract",
      "outputs": [],
      "payable": false,
      "stateMutability": "nonpayable",
      "type": "function"
    }
  ],
  "bytecode": "0x608060405234801561001057600080fd5b5033600360006101000a81548173ffffffffffffffffffffffffffffffffffffffff021916908373ffffffffffffffffffffffffffffffffffffffff1602179055506001600281905550610b77806100696000396000f300608060405260043610610083576000357c0100000000000000000000000000000000000000000000000000000000900463ffffffff1680631e9d48cf14610088578063421b2d8b146100e357806344bec91c146101265780635a58cd4c146102de578063968ea82a146102f557806398575188146103ea578063d63052811461042d575b600080fd5b34801561009457600080fd5b506100c9600480360381019080803573ffffffffffffffffffffffffffffffffffffffff169060200190929190505050610458565b604051808215151515815260200191505060405180910390f35b3480156100ef57600080fd5b50610124600480360381019080803573ffffffffffffffffffffffffffffffffffffffff1690602001909291905050506104ad565b005b34801561013257600080fd5b5061015160048036038101908080359060200190929190505050610563565b6040518080602001806020018673ffffffffffffffffffffffffffffffffffffffff1673ffffffffffffffffffffffffffffffffffffffff16815260200180602001858152602001848103845289818151815260200191508051906020019080838360005b838110156101d15780820151818401526020810190506101b6565b50505050905090810190601f1680156101fe5780820380516001836020036101000a031916815260200191505b50848103835288818151815260200191508051906020019080838360005b8381101561023757808201518184015260208101905061021c565b50505050905090810190601f1680156102645780820380516001836020036101000a031916815260200191505b50848103825286818151815260200191508051906020019080838360005b8381101561029d578082015181840152602081019050610282565b50505050905090810190601f1680156102ca5780820380516001836020036101000a031916815260200191505b509850505050505050505060405180910390f35b3480156102ea57600080fd5b506102f36107da565b005b34801561030157600080fd5b506103e8600480360381019080803590602001908201803590602001908080601f0160208091040260200160405190810160405280939291908181526020018383808284378201915050505050509192919290803590602001908201803590602001908080601f0160208091040260200160405190810160405280939291908181526020018383808284378201915050505050509192919290803590602001908201803590602001908080601f0160208091040260200160405190810160405280939291908181526020018383808284378201915050505050509192919290505050610871565b005b3480156103f657600080fd5b5061042b600480360381019080803573ffffffffffffffffffffffffffffffffffffffff1690602001909291905050506109e3565b005b34801561043957600080fd5b50610442610a99565b6040518082815260200191505060405180910390f35b60008060008373ffffffffffffffffffffffffffffffffffffffff1673ffffffffffffffffffffffffffffffffffffffff16815260200190815260200160002060009054906101000a900460ff169050919050565b600360009054906101000a900473ffffffffffffffffffffffffffffffffffffffff1673ffffffffffffffffffffffffffffffffffffffff163373ffffffffffffffffffffffffffffffffffffffff1614151561050957600080fd5b60016000808373ffffffffffffffffffffffffffffffffffffffff1673ffffffffffffffffffffffffffffffffffffffff16815260200190815260200160002060006101000a81548160ff02191690831515021790555050565b606080600060606000600160008781526020019081526020016000206000018054600181600116156101000203166002900480601f0160208091040260200160405190810160405280929190818152602001828054600181600116156101000203166002900480156106165780601f106105eb57610100808354040283529160200191610616565b820191906000526020600020905b8154815290600101906020018083116105f957829003601f168201915b50505050509450600160008781526020019081526020016000206001018054600181600116156101000203166002900480601f0160208091040260200160405190810160405280929190818152602001828054600181600116156101000203166002900480156106c75780601f1061069c576101008083540402835291602001916106c7565b820191906000526020600020905b8154815290600101906020018083116106aa57829003601f168201915b505050505093506001600087815260200190815260200160002060020160009054906101000a900473ffffffffffffffffffffffffffffffffffffffff169250600160008781526020019081526020016000206003018054600181600116156101000203166002900480601f0160208091040260200160405190810160405280929190818152602001828054600181600116156101000203166002900480156107b15780601f10610786576101008083540402835291602001916107b1565b820191906000526020600020905b81548152906001019060200180831161079457829003601f168201915b505050505091506001600087815260200190815260200160002060040154905091939590929450565b600360009054906101000a900473ffffffffffffffffffffffffffffffffffffffff1673ffffffffffffffffffffffffffffffffffffffff163373ffffffffffffffffffffffffffffffffffffffff1614151561083657600080fd5b600360009054906101000a900473ffffffffffffffffffffffffffffffffffffffff1673ffffffffffffffffffffffffffffffffffffffff16ff5b33600115156000808373ffffffffffffffffffffffffffffffffffffffff1673ffffffffffffffffffffffffffffffffffffffff16815260200190815260200160002060009054906101000a900460ff1615151415156108d057600080fd5b8360016000600254815260200190815260200160002060000190805190602001906108fc929190610aa6565b50826001600060025481526020019081526020016000206001019080519060200190610929929190610aa6565b503360016000600254815260200190815260200160002060020160006101000a81548173ffffffffffffffffffffffffffffffffffffffff021916908373ffffffffffffffffffffffffffffffffffffffff1602179055508160016000600254815260200190815260200160002060030190805190602001906109ad929190610aa6565b50426001600060025481526020019081526020016000206004018190555060026000815480929190600101919050555050505050565b600360009054906101000a900473ffffffffffffffffffffffffffffffffffffffff1673ffffffffffffffffffffffffffffffffffffffff163373ffffffffffffffffffffffffffffffffffffffff16141515610a3f57600080fd5b60008060008373ffffffffffffffffffffffffffffffffffffffff1673ffffffffffffffffffffffffffffffffffffffff16815260200190815260200160002060006101000a81548160ff02191690831515021790555050565b6000600160025403905090565b828054600181600116156101000203166002900490600052602060002090601f016020900481019282601f10610ae757805160ff1916838001178555610b15565b82800160010185558215610b15579182015b82811115610b14578251825591602001919060010190610af9565b5b509050610b229190610b26565b5090565b610b4891905b80821115610b44576000816000905550600101610b2c565b5090565b905600a165627a7a72305820ed143a3725e5b062a4a4829a5f26ac8ced6b0b7be5c7e98fad57145af9f7bf0c0029",
  "source": "pragma solidity ^0.4.23;\r\n\r\ncontract TUC {\r\n\r\n  // Mapping from user address to boolean type\r\n  mapping(address => bool) isAuthorized;\r\n\r\n  // Define struct\r\n  struct tr {\r\n    string _currentTx;\r\n    string _previousTx;\r\n    address _sender;\r\n    string _receiver;\r\n    uint _time;\r\n  }\r\n\r\n  mapping(uint => tr) trs;\r\n\r\n  uint _numberOfTrs;\r\n\r\n  address _batchAdmin;\r\n\r\n  // As a prerequisite for some functions\r\n  modifier onlyAdmin {\r\n    require(msg.sender == _batchAdmin);\r\n    _;\r\n  }\r\n\r\n  modifier onlyAuthorized(address addr) {\r\n    require(isAuthorized[addr] == true);\r\n    _;\r\n  }\r\n\r\n  // Constructor function\r\n  constructor() public {\r\n    _batchAdmin = msg.sender;\r\n    _numberOfTrs = 1;\r\n  }\r\n\r\n  // Update transaction information\r\n  function addTr(string currentTx, string previousTx, string re) public onlyAuthorized(msg.sender) {\r\n\r\n    trs[_numberOfTrs]._currentTx = currentTx;\r\n    trs[_numberOfTrs]._previousTx = previousTx;\r\n    trs[_numberOfTrs]._sender = msg.sender;\r\n    trs[_numberOfTrs]._receiver = re;\r\n    trs[_numberOfTrs]._time = now;\r\n\r\n    _numberOfTrs++;\r\n\r\n  }\r\n\r\n  // Get transaction information by id\r\n  function getTrOfId(uint id) constant public returns(string currentTx, string previousTx, address se, string re, uint time) {\r\n    currentTx = trs[id]._currentTx;\r\n    previousTx = trs[id]._previousTx;\r\n    se = trs[id]._sender;\r\n    re = trs[id]._receiver;\r\n    time = trs[id]._time;\r\n  }\r\n\r\n  // Get the number of transactions\r\n  function getNumberOfTrs() constant public returns(uint numberOfTrs) {\r\n    numberOfTrs = _numberOfTrs - 1;\r\n  }\r\n\r\n  // Add user to authorization list\r\n  function addUser(address addr) public onlyAdmin {\r\n    isAuthorized[addr] = true;\r\n  }\r\n\r\n  // Remove user\r\n  function removeUser(address addr) public onlyAdmin {\r\n    isAuthorized[addr] = false;\r\n  }\r\n\r\n  // Check if the user is authorized\r\n  function checkUser(address addr) constant public returns(bool result) {\r\n    result = isAuthorized[addr];\r\n  }\r\n\r\n  // Destroy the contract\r\n  function deleteContract() public onlyAdmin {\r\n    selfdestruct(_batchAdmin);\r\n  }\r\n\r\n}\r\n\r\n",
  "sourcePath": "/Users/macbook/Desktop/Supplies/contracts/TUC.sol",
  "compiler": {
    "name": "solc",
    "version": "0.4.23+commit.124ca40d.Emscripten.clang"
  },
  "schemaVersion": "3.4.1",
  "updatedAt": "2021-06-22T10:58:46.803Z",
  "devdoc": {
    "methods": {}
  },
  "userdoc": {
    "methods": {}
  }
}